{
  "contractName": "CrateContract",
  "abi": [
    {
      "inputs": [],
      "stateMutability": "nonpayable",
      "type": "constructor"
    },
    {
      "anonymous": false,
      "inputs": [
        {
          "indexed": false,
          "internalType": "uint256",
          "name": "id",
          "type": "uint256"
        },
        {
          "indexed": false,
          "internalType": "string",
          "name": "title",
          "type": "string"
        },
        {
          "indexed": false,
          "internalType": "string",
          "name": "category",
          "type": "string"
        },
        {
          "indexed": false,
          "internalType": "string",
          "name": "description",
          "type": "string"
        },
        {
          "indexed": false,
          "internalType": "string",
          "name": "imageUrl",
          "type": "string"
        },
        {
          "indexed": false,
          "internalType": "address",
          "name": "owner",
          "type": "address"
        },
        {
          "indexed": false,
          "internalType": "address",
          "name": "creator",
          "type": "address"
        },
        {
          "indexed": false,
          "internalType": "uint256",
          "name": "amount",
          "type": "uint256"
        },
        {
          "indexed": false,
          "internalType": "bool",
          "name": "isSalable",
          "type": "bool"
        },
        {
          "indexed": false,
          "internalType": "uint256",
          "name": "updateAt",
          "type": "uint256"
        },
        {
          "indexed": false,
          "internalType": "uint256",
          "name": "createAt",
          "type": "uint256"
        }
      ],
      "name": "ViewCrate",
      "type": "event"
    },
    {
      "inputs": [],
      "name": "crateCounter",
      "outputs": [
        {
          "internalType": "uint256",
          "name": "",
          "type": "uint256"
        }
      ],
      "stateMutability": "view",
      "type": "function",
      "constant": true
    },
    {
      "inputs": [
        {
          "internalType": "uint256",
          "name": "",
          "type": "uint256"
        }
      ],
      "name": "crates",
      "outputs": [
        {
          "internalType": "uint256",
          "name": "id",
          "type": "uint256"
        },
        {
          "internalType": "string",
          "name": "title",
          "type": "string"
        },
        {
          "internalType": "string",
          "name": "category",
          "type": "string"
        },
        {
          "internalType": "string",
          "name": "description",
          "type": "string"
        },
        {
          "internalType": "string",
          "name": "imageUrl",
          "type": "string"
        },
        {
          "internalType": "address",
          "name": "owner",
          "type": "address"
        },
        {
          "internalType": "address",
          "name": "creator",
          "type": "address"
        },
        {
          "internalType": "uint256",
          "name": "amount",
          "type": "uint256"
        },
        {
          "internalType": "bool",
          "name": "isSalable",
          "type": "bool"
        },
        {
          "internalType": "uint256",
          "name": "updateAt",
          "type": "uint256"
        },
        {
          "internalType": "uint256",
          "name": "createAt",
          "type": "uint256"
        }
      ],
      "stateMutability": "view",
      "type": "function",
      "constant": true
    },
    {
      "inputs": [
        {
          "internalType": "string",
          "name": "_title",
          "type": "string"
        },
        {
          "internalType": "string",
          "name": "_category",
          "type": "string"
        },
        {
          "internalType": "string",
          "name": "_description",
          "type": "string"
        },
        {
          "internalType": "string",
          "name": "_imageUrl",
          "type": "string"
        },
        {
          "internalType": "uint256",
          "name": "_amount",
          "type": "uint256"
        },
        {
          "internalType": "bool",
          "name": "_isSalable",
          "type": "bool"
        }
      ],
      "name": "createCrate",
      "outputs": [],
      "stateMutability": "nonpayable",
      "type": "function"
    },
    {
      "inputs": [
        {
          "internalType": "uint256",
          "name": "_id",
          "type": "uint256"
        },
        {
          "internalType": "string",
          "name": "_title",
          "type": "string"
        },
        {
          "internalType": "string",
          "name": "_category",
          "type": "string"
        },
        {
          "internalType": "string",
          "name": "_description",
          "type": "string"
        },
        {
          "internalType": "string",
          "name": "_imageUrl",
          "type": "string"
        },
        {
          "internalType": "uint256",
          "name": "_amount",
          "type": "uint256"
        },
        {
          "internalType": "bool",
          "name": "_isSalable",
          "type": "bool"
        }
      ],
      "name": "updateCrate",
      "outputs": [],
      "stateMutability": "nonpayable",
      "type": "function"
    },
    {
      "inputs": [
        {
          "internalType": "address payable",
          "name": "_recipient",
          "type": "address"
        },
        {
          "internalType": "uint256",
          "name": "_id",
          "type": "uint256"
        }
      ],
      "name": "buyCrate",
      "outputs": [],
      "stateMutability": "payable",
      "type": "function",
      "payable": true
    },
    {
      "inputs": [
        {
          "internalType": "address",
          "name": "_owner",
          "type": "address"
        }
      ],
      "name": "getCratesByOwner",
      "outputs": [
        {
          "components": [
            {
              "internalType": "uint256",
              "name": "id",
              "type": "uint256"
            },
            {
              "internalType": "string",
              "name": "title",
              "type": "string"
            },
            {
              "internalType": "string",
              "name": "category",
              "type": "string"
            },
            {
              "internalType": "string",
              "name": "description",
              "type": "string"
            },
            {
              "internalType": "string",
              "name": "imageUrl",
              "type": "string"
            },
            {
              "internalType": "address",
              "name": "owner",
              "type": "address"
            },
            {
              "internalType": "address",
              "name": "creator",
              "type": "address"
            },
            {
              "internalType": "uint256",
              "name": "amount",
              "type": "uint256"
            },
            {
              "internalType": "bool",
              "name": "isSalable",
              "type": "bool"
            },
            {
              "internalType": "uint256",
              "name": "updateAt",
              "type": "uint256"
            },
            {
              "internalType": "uint256",
              "name": "createAt",
              "type": "uint256"
            }
          ],
          "internalType": "struct CrateContract.Crate[]",
          "name": "",
          "type": "tuple[]"
        }
      ],
      "stateMutability": "view",
      "type": "function",
      "constant": true
    },
    {
      "inputs": [
        {
          "internalType": "string",
          "name": "_category",
          "type": "string"
        }
      ],
      "name": "getCratesByCategory",
      "outputs": [
        {
          "components": [
            {
              "internalType": "uint256",
              "name": "id",
              "type": "uint256"
            },
            {
              "internalType": "string",
              "name": "title",
              "type": "string"
            },
            {
              "internalType": "string",
              "name": "category",
              "type": "string"
            },
            {
              "internalType": "string",
              "name": "description",
              "type": "string"
            },
            {
              "internalType": "string",
              "name": "imageUrl",
              "type": "string"
            },
            {
              "internalType": "address",
              "name": "owner",
              "type": "address"
            },
            {
              "internalType": "address",
              "name": "creator",
              "type": "address"
            },
            {
              "internalType": "uint256",
              "name": "amount",
              "type": "uint256"
            },
            {
              "internalType": "bool",
              "name": "isSalable",
              "type": "bool"
            },
            {
              "internalType": "uint256",
              "name": "updateAt",
              "type": "uint256"
            },
            {
              "internalType": "uint256",
              "name": "createAt",
              "type": "uint256"
            }
          ],
          "internalType": "struct CrateContract.Crate[]",
          "name": "",
          "type": "tuple[]"
        }
      ],
      "stateMutability": "view",
      "type": "function",
      "constant": true
    }
  ],
  "bytecode": "0x60806040523480156200001157600080fd5b5060405180610160016040528060005481526020016040518060400160405280600781526020017f47656e657369730000000000000000000000000000000000000000000000000081525081526020016040518060400160405280600e81526020017f536d61727420436f6e747261637400000000000000000000000000000000000081525081526020016040518060400160405280600f81526020017f5468652066697273742063726174650000000000000000000000000000000000815250815260200160405180606001604052806029815260200162002b976029913981526020013373ffffffffffffffffffffffffffffffffffffffff1681526020013373ffffffffffffffffffffffffffffffffffffffff16815260200169152d02c7e14af680000081526020016000151581526020014281526020014281525060016000805481526020019081526020016000206000820151816000015560208201518160010190816200018691906200053a565b5060408201518160020190816200019e91906200053a565b506060820151816003019081620001b691906200053a565b506080820151816004019081620001ce91906200053a565b5060a08201518160050160006101000a81548173ffffffffffffffffffffffffffffffffffffffff021916908373ffffffffffffffffffffffffffffffffffffffff16021790555060c08201518160060160006101000a81548173ffffffffffffffffffffffffffffffffffffffff021916908373ffffffffffffffffffffffffffffffffffffffff16021790555060e082015181600701556101008201518160080160006101000a81548160ff021916908315150217905550610120820151816009015561014082015181600a0155905050600080815480929190620002b59062000650565b91905055506200069d565b600081519050919050565b7f4e487b7100000000000000000000000000000000000000000000000000000000600052604160045260246000fd5b7f4e487b7100000000000000000000000000000000000000000000000000000000600052602260045260246000fd5b600060028204905060018216806200034257607f821691505b602082108103620003585762000357620002fa565b5b50919050565b60008190508160005260206000209050919050565b60006020601f8301049050919050565b600082821b905092915050565b600060088302620003c27fffffffffffffffffffffffffffffffffffffffffffffffffffffffffffffffff8262000383565b620003ce868362000383565b95508019841693508086168417925050509392505050565b6000819050919050565b6000819050919050565b60006200041b620004156200040f84620003e6565b620003f0565b620003e6565b9050919050565b6000819050919050565b6200043783620003fa565b6200044f620004468262000422565b84845462000390565b825550505050565b600090565b6200046662000457565b620004738184846200042c565b505050565b5b818110156200049b576200048f6000826200045c565b60018101905062000479565b5050565b601f821115620004ea57620004b4816200035e565b620004bf8462000373565b81016020851015620004cf578190505b620004e7620004de8562000373565b83018262000478565b50505b505050565b600082821c905092915050565b60006200050f60001984600802620004ef565b1980831691505092915050565b60006200052a8383620004fc565b9150826002028217905092915050565b6200054582620002c0565b67ffffffffffffffff811115620005615762000560620002cb565b5b6200056d825462000329565b6200057a8282856200049f565b600060209050601f831160018114620005b257600084156200059d578287015190505b620005a985826200051c565b86555062000619565b601f198416620005c2866200035e565b60005b82811015620005ec57848901518255600182019150602085019450602081019050620005c5565b868310156200060c578489015162000608601f891682620004fc565b8355505b6001600288020188555050505b505050505050565b7f4e487b7100000000000000000000000000000000000000000000000000000000600052601160045260246000fd5b60006200065d82620003e6565b91507fffffffffffffffffffffffffffffffffffffffffffffffffffffffffffffffff820362000692576200069162000621565b5b600182019050919050565b6124ea80620006ad6000396000f3fe6080604052600436106100705760003560e01c80637e84cfdd1161004e5780637e84cfdd1461010e578063adc3b52f1461014b578063c82f710714610188578063ea37029c146101a457610070565b806320e8edbc146100755780633ce135bb146100bc57806374e6d0a5146100e5575b600080fd5b34801561008157600080fd5b5061009c60048036038101906100979190611638565b6101cf565b6040516100b39b9a99989796959493929190611760565b60405180910390f35b3480156100c857600080fd5b506100e360048036038101906100de9190611988565b610496565b005b3480156100f157600080fd5b5061010c60048036038101906101079190611a85565b6106d9565b005b34801561011a57600080fd5b5061013560048036038101906101309190611bc3565b6108da565b6040516101429190611e2d565b60405180910390f35b34801561015757600080fd5b50610172600480360381019061016d9190611e4f565b610de7565b60405161017f9190611e2d565b60405180910390f35b6101a2600480360381019061019d9190611ed6565b61137c565b005b3480156101b057600080fd5b506101b9611507565b6040516101c69190611f16565b60405180910390f35b60016020528060005260406000206000915090508060000154908060010180546101f890611f60565b80601f016020809104026020016040519081016040528092919081815260200182805461022490611f60565b80156102715780601f1061024657610100808354040283529160200191610271565b820191906000526020600020905b81548152906001019060200180831161025457829003601f168201915b50505050509080600201805461028690611f60565b80601f01602080910402602001604051908101604052809291908181526020018280546102b290611f60565b80156102ff5780601f106102d4576101008083540402835291602001916102ff565b820191906000526020600020905b8154815290600101906020018083116102e257829003601f168201915b50505050509080600301805461031490611f60565b80601f016020809104026020016040519081016040528092919081815260200182805461034090611f60565b801561038d5780601f106103625761010080835404028352916020019161038d565b820191906000526020600020905b81548152906001019060200180831161037057829003601f168201915b5050505050908060040180546103a290611f60565b80601f01602080910402602001604051908101604052809291908181526020018280546103ce90611f60565b801561041b5780601f106103f05761010080835404028352916020019161041b565b820191906000526020600020905b8154815290600101906020018083116103fe57829003601f168201915b5050505050908060050160009054906101000a900473ffffffffffffffffffffffffffffffffffffffff16908060060160009054906101000a900473ffffffffffffffffffffffffffffffffffffffff16908060070154908060080160009054906101000a900460ff169080600901549080600a015490508b565b60405180610160016040528060005481526020018781526020018681526020018581526020018481526020013373ffffffffffffffffffffffffffffffffffffffff1681526020013373ffffffffffffffffffffffffffffffffffffffff168152602001678ac7230489e800008461050e9190611fc0565b8152602001821515815260200142815260200142815250600160008054815260200190815260200160002060008201518160000155602082015181600101908161055891906121ae565b50604082015181600201908161056e91906121ae565b50606082015181600301908161058491906121ae565b50608082015181600401908161059a91906121ae565b5060a08201518160050160006101000a81548173ffffffffffffffffffffffffffffffffffffffff021916908373ffffffffffffffffffffffffffffffffffffffff16021790555060c08201518160060160006101000a81548173ffffffffffffffffffffffffffffffffffffffff021916908373ffffffffffffffffffffffffffffffffffffffff16021790555060e082015181600701556101008201518160080160006101000a81548160ff021916908315150217905550610120820151816009015561014082015181600a015590505060008081548092919061067f90612280565b91905055507fa30168619ddb65efabab14073b74e5ec43d16f9a4a7d14b8f296659ebc675c1f600054878787873333898942426040516106c99b9a99989796959493929190611760565b60405180910390a1505050505050565b6001600088815260200190815260200160002060050160009054906101000a900473ffffffffffffffffffffffffffffffffffffffff1673ffffffffffffffffffffffffffffffffffffffff163373ffffffffffffffffffffffffffffffffffffffff161461077d576040517f08c379a00000000000000000000000000000000000000000000000000000000081526004016107749061233a565b60405180910390fd5b856001600089815260200190815260200160002060010190816107a091906121ae565b50846001600089815260200190815260200160002060020190816107c491906121ae565b50836001600089815260200190815260200160002060030190816107e891906121ae565b508260016000898152602001908152602001600020600401908161080c91906121ae565b50678ac7230489e80000826108219190611fc0565b6001600089815260200190815260200160002060070181905550806001600089815260200190815260200160002060080160006101000a81548160ff0219169083151502179055504260016000898152602001908152602001600020600901819055507fa30168619ddb65efabab14073b74e5ec43d16f9a4a7d14b8f296659ebc675c1f600054878787873333898942426040516108c99b9a99989796959493929190611760565b60405180910390a150505050505050565b60606000805b600054811015610975578373ffffffffffffffffffffffffffffffffffffffff166001600083815260200190815260200160002060050160009054906101000a900473ffffffffffffffffffffffffffffffffffffffff1673ffffffffffffffffffffffffffffffffffffffff160361096257818061095e90612280565b9250505b808061096d90612280565b9150506108e0565b5060008167ffffffffffffffff81111561099257610991611831565b5b6040519080825280602002602001820160405280156109cb57816020015b6109b8611566565b8152602001906001900390816109b05790505b5090506000805b600054811015610ddb578573ffffffffffffffffffffffffffffffffffffffff166001600083815260200190815260200160002060050160009054906101000a900473ffffffffffffffffffffffffffffffffffffffff1673ffffffffffffffffffffffffffffffffffffffff1603610dc857600160008281526020019081526020016000206040518061016001604052908160008201548152602001600182018054610a7e90611f60565b80601f0160208091040260200160405190810160405280929190818152602001828054610aaa90611f60565b8015610af75780601f10610acc57610100808354040283529160200191610af7565b820191906000526020600020905b815481529060010190602001808311610ada57829003601f168201915b50505050508152602001600282018054610b1090611f60565b80601f0160208091040260200160405190810160405280929190818152602001828054610b3c90611f60565b8015610b895780601f10610b5e57610100808354040283529160200191610b89565b820191906000526020600020905b815481529060010190602001808311610b6c57829003601f168201915b50505050508152602001600382018054610ba290611f60565b80601f0160208091040260200160405190810160405280929190818152602001828054610bce90611f60565b8015610c1b5780601f10610bf057610100808354040283529160200191610c1b565b820191906000526020600020905b815481529060010190602001808311610bfe57829003601f168201915b50505050508152602001600482018054610c3490611f60565b80601f0160208091040260200160405190810160405280929190818152602001828054610c6090611f60565b8015610cad5780601f10610c8257610100808354040283529160200191610cad565b820191906000526020600020905b815481529060010190602001808311610c9057829003601f168201915b505050505081526020016005820160009054906101000a900473ffffffffffffffffffffffffffffffffffffffff1673ffffffffffffffffffffffffffffffffffffffff1673ffffffffffffffffffffffffffffffffffffffff1681526020016006820160009054906101000a900473ffffffffffffffffffffffffffffffffffffffff1673ffffffffffffffffffffffffffffffffffffffff1673ffffffffffffffffffffffffffffffffffffffff168152602001600782015481526020016008820160009054906101000a900460ff1615151515815260200160098201548152602001600a82015481525050838381518110610dae57610dad61235a565b5b60200260200101819052508180610dc490612280565b9250505b8080610dd390612280565b9150506109d2565b50819350505050919050565b60606000805b600054811015610ec657610e9f600160008381526020019081526020016000206002018054610e1b90611f60565b80601f0160208091040260200160405190810160405280929190818152602001828054610e4790611f60565b8015610e945780601f10610e6957610100808354040283529160200191610e94565b820191906000526020600020905b815481529060010190602001808311610e7757829003601f168201915b50505050508561150d565b15610eb3578180610eaf90612280565b9250505b8080610ebe90612280565b915050610ded565b5060008167ffffffffffffffff811115610ee357610ee2611831565b5b604051908082528060200260200182016040528015610f1c57816020015b610f09611566565b815260200190600190039081610f015790505b5090506000805b60005481101561137057610fd5600160008381526020019081526020016000206002018054610f5190611f60565b80601f0160208091040260200160405190810160405280929190818152602001828054610f7d90611f60565b8015610fca5780601f10610f9f57610100808354040283529160200191610fca565b820191906000526020600020905b815481529060010190602001808311610fad57829003601f168201915b50505050508761150d565b1561135d5760016000828152602001908152602001600020604051806101600160405290816000820154815260200160018201805461101390611f60565b80601f016020809104026020016040519081016040528092919081815260200182805461103f90611f60565b801561108c5780601f106110615761010080835404028352916020019161108c565b820191906000526020600020905b81548152906001019060200180831161106f57829003601f168201915b505050505081526020016002820180546110a590611f60565b80601f01602080910402602001604051908101604052809291908181526020018280546110d190611f60565b801561111e5780601f106110f35761010080835404028352916020019161111e565b820191906000526020600020905b81548152906001019060200180831161110157829003601f168201915b5050505050815260200160038201805461113790611f60565b80601f016020809104026020016040519081016040528092919081815260200182805461116390611f60565b80156111b05780601f10611185576101008083540402835291602001916111b0565b820191906000526020600020905b81548152906001019060200180831161119357829003601f168201915b505050505081526020016004820180546111c990611f60565b80601f01602080910402602001604051908101604052809291908181526020018280546111f590611f60565b80156112425780601f1061121757610100808354040283529160200191611242565b820191906000526020600020905b81548152906001019060200180831161122557829003601f168201915b505050505081526020016005820160009054906101000a900473ffffffffffffffffffffffffffffffffffffffff1673ffffffffffffffffffffffffffffffffffffffff1673ffffffffffffffffffffffffffffffffffffffff1681526020016006820160009054906101000a900473ffffffffffffffffffffffffffffffffffffffff1673ffffffffffffffffffffffffffffffffffffffff1673ffffffffffffffffffffffffffffffffffffffff168152602001600782015481526020016008820160009054906101000a900460ff1615151515815260200160098201548152602001600a820154815250508383815181106113435761134261235a565b5b6020026020010181905250818061135990612280565b9250505b808061136890612280565b915050610f23565b50819350505050919050565b600115156001600083815260200190815260200160002060080160009054906101000a900460ff161515146113e6576040517f08c379a00000000000000000000000000000000000000000000000000000000081526004016113dd906123d5565b60405180910390fd5b6001600082815260200190815260200160002060070154678ac7230489e80000346114119190611fc0565b14611451576040517f08c379a000000000000000000000000000000000000000000000000000000000815260040161144890612441565b60405180910390fd5b8173ffffffffffffffffffffffffffffffffffffffff166108fc60016000848152602001908152602001600020600701549081150290604051600060405180830381858888f193505050501580156114ad573d6000803e3d6000fd5b50336001600083815260200190815260200160002060050160006101000a81548173ffffffffffffffffffffffffffffffffffffffff021916908373ffffffffffffffffffffffffffffffffffffffff1602179055505050565b60005481565b600081604051602001611520919061249d565b6040516020818303038152906040528051906020012083604051602001611547919061249d565b6040516020818303038152906040528051906020012014905092915050565b6040518061016001604052806000815260200160608152602001606081526020016060815260200160608152602001600073ffffffffffffffffffffffffffffffffffffffff168152602001600073ffffffffffffffffffffffffffffffffffffffff1681526020016000815260200160001515815260200160008152602001600081525090565b6000604051905090565b600080fd5b600080fd5b6000819050919050565b61161581611602565b811461162057600080fd5b50565b6000813590506116328161160c565b92915050565b60006020828403121561164e5761164d6115f8565b5b600061165c84828501611623565b91505092915050565b61166e81611602565b82525050565b600081519050919050565b600082825260208201905092915050565b60005b838110156116ae578082015181840152602081019050611693565b60008484015250505050565b6000601f19601f8301169050919050565b60006116d682611674565b6116e0818561167f565b93506116f0818560208601611690565b6116f9816116ba565b840191505092915050565b600073ffffffffffffffffffffffffffffffffffffffff82169050919050565b600061172f82611704565b9050919050565b61173f81611724565b82525050565b60008115159050919050565b61175a81611745565b82525050565b600061016082019050611776600083018e611665565b8181036020830152611788818d6116cb565b9050818103604083015261179c818c6116cb565b905081810360608301526117b0818b6116cb565b905081810360808301526117c4818a6116cb565b90506117d360a0830189611736565b6117e060c0830188611736565b6117ed60e0830187611665565b6117fb610100830186611751565b611809610120830185611665565b611817610140830184611665565b9c9b505050505050505050505050565b600080fd5b600080fd5b7f4e487b7100000000000000000000000000000000000000000000000000000000600052604160045260246000fd5b611869826116ba565b810181811067ffffffffffffffff8211171561188857611887611831565b5b80604052505050565b600061189b6115ee565b90506118a78282611860565b919050565b600067ffffffffffffffff8211156118c7576118c6611831565b5b6118d0826116ba565b9050602081019050919050565b82818337600083830152505050565b60006118ff6118fa846118ac565b611891565b90508281526020810184848401111561191b5761191a61182c565b5b6119268482856118dd565b509392505050565b600082601f83011261194357611942611827565b5b81356119538482602086016118ec565b91505092915050565b61196581611745565b811461197057600080fd5b50565b6000813590506119828161195c565b92915050565b60008060008060008060c087890312156119a5576119a46115f8565b5b600087013567ffffffffffffffff8111156119c3576119c26115fd565b5b6119cf89828a0161192e565b965050602087013567ffffffffffffffff8111156119f0576119ef6115fd565b5b6119fc89828a0161192e565b955050604087013567ffffffffffffffff811115611a1d57611a1c6115fd565b5b611a2989828a0161192e565b945050606087013567ffffffffffffffff811115611a4a57611a496115fd565b5b611a5689828a0161192e565b9350506080611a6789828a01611623565b92505060a0611a7889828a01611973565b9150509295509295509295565b600080600080600080600060e0888a031215611aa457611aa36115f8565b5b6000611ab28a828b01611623565b975050602088013567ffffffffffffffff811115611ad357611ad26115fd565b5b611adf8a828b0161192e565b965050604088013567ffffffffffffffff811115611b0057611aff6115fd565b5b611b0c8a828b0161192e565b955050606088013567ffffffffffffffff811115611b2d57611b2c6115fd565b5b611b398a828b0161192e565b945050608088013567ffffffffffffffff811115611b5a57611b596115fd565b5b611b668a828b0161192e565b93505060a0611b778a828b01611623565b92505060c0611b888a828b01611973565b91505092959891949750929550565b611ba081611724565b8114611bab57600080fd5b50565b600081359050611bbd81611b97565b92915050565b600060208284031215611bd957611bd86115f8565b5b6000611be784828501611bae565b91505092915050565b600081519050919050565b600082825260208201905092915050565b6000819050602082019050919050565b611c2581611602565b82525050565b600082825260208201905092915050565b6000611c4782611674565b611c518185611c2b565b9350611c61818560208601611690565b611c6a816116ba565b840191505092915050565b611c7e81611724565b82525050565b611c8d81611745565b82525050565b600061016083016000830151611cac6000860182611c1c565b5060208301518482036020860152611cc48282611c3c565b91505060408301518482036040860152611cde8282611c3c565b91505060608301518482036060860152611cf88282611c3c565b91505060808301518482036080860152611d128282611c3c565b91505060a0830151611d2760a0860182611c75565b5060c0830151611d3a60c0860182611c75565b5060e0830151611d4d60e0860182611c1c565b50610100830151611d62610100860182611c84565b50610120830151611d77610120860182611c1c565b50610140830151611d8c610140860182611c1c565b508091505092915050565b6000611da38383611c93565b905092915050565b6000602082019050919050565b6000611dc382611bf0565b611dcd8185611bfb565b935083602082028501611ddf85611c0c565b8060005b85811015611e1b5784840389528151611dfc8582611d97565b9450611e0783611dab565b925060208a01995050600181019050611de3565b50829750879550505050505092915050565b60006020820190508181036000830152611e478184611db8565b905092915050565b600060208284031215611e6557611e646115f8565b5b600082013567ffffffffffffffff811115611e8357611e826115fd565b5b611e8f8482850161192e565b91505092915050565b6000611ea382611704565b9050919050565b611eb381611e98565b8114611ebe57600080fd5b50565b600081359050611ed081611eaa565b92915050565b60008060408385031215611eed57611eec6115f8565b5b6000611efb85828601611ec1565b9250506020611f0c85828601611623565b9150509250929050565b6000602082019050611f2b6000830184611665565b92915050565b7f4e487b7100000000000000000000000000000000000000000000000000000000600052602260045260246000fd5b60006002820490506001821680611f7857607f821691505b602082108103611f8b57611f8a611f31565b5b50919050565b7f4e487b7100000000000000000000000000000000000000000000000000000000600052601160045260246000fd5b6000611fcb82611602565b9150611fd683611602565b9250828202611fe481611602565b91508282048414831517611ffb57611ffa611f91565b5b5092915050565b60008190508160005260206000209050919050565b60006020601f8301049050919050565b600082821b905092915050565b6000600883026120647fffffffffffffffffffffffffffffffffffffffffffffffffffffffffffffffff82612027565b61206e8683612027565b95508019841693508086168417925050509392505050565b6000819050919050565b60006120ab6120a66120a184611602565b612086565b611602565b9050919050565b6000819050919050565b6120c583612090565b6120d96120d1826120b2565b848454612034565b825550505050565b600090565b6120ee6120e1565b6120f98184846120bc565b505050565b5b8181101561211d576121126000826120e6565b6001810190506120ff565b5050565b601f8211156121625761213381612002565b61213c84612017565b8101602085101561214b578190505b61215f61215785612017565b8301826120fe565b50505b505050565b600082821c905092915050565b600061218560001984600802612167565b1980831691505092915050565b600061219e8383612174565b9150826002028217905092915050565b6121b782611674565b67ffffffffffffffff8111156121d0576121cf611831565b5b6121da8254611f60565b6121e5828285612121565b600060209050601f8311600181146122185760008415612206578287015190505b6122108582612192565b865550612278565b601f19841661222686612002565b60005b8281101561224e57848901518255600182019150602085019450602081019050612229565b8683101561226b5784890151612267601f891682612174565b8355505b6001600288020188555050505b505050505050565b600061228b82611602565b91507fffffffffffffffffffffffffffffffffffffffffffffffffffffffffffffffff82036122bd576122bc611f91565b5b600182019050919050565b7f596f752063616e206f6e6c792075706461746520796f75722070726f6475637460008201527f7300000000000000000000000000000000000000000000000000000000000000602082015250565b600061232460218361167f565b915061232f826122c8565b604082019050919050565b6000602082019050818103600083015261235381612317565b9050919050565b7f4e487b7100000000000000000000000000000000000000000000000000000000600052603260045260246000fd5b7f546865206372617465206973206e6f7420666f722073616c6500000000000000600082015250565b60006123bf60198361167f565b91506123ca82612389565b602082019050919050565b600060208201905081810360008301526123ee816123b2565b9050919050565b7f496e73756666696369656e7420616d6f756e7400000000000000000000000000600082015250565b600061242b60138361167f565b9150612436826123f5565b602082019050919050565b6000602082019050818103600083015261245a8161241e565b9050919050565b600081905092915050565b600061247782611674565b6124818185612461565b9350612491818560208601611690565b80840191505092915050565b60006124a9828461246c565b91508190509291505056fea26469706673582212200241a9c0daf5d4f1c22612ccc1a775e13eaed6c7eec9894167c6963817637dfa64736f6c6343000813003368747470733a2f2f6769746875622e636f6d2f6d6574616c706f63682f63727970746f2d6372617465",
  "immutableReferences": {},
  "source": "// SPDX-License-Identifier: MIT\npragma solidity >=0.8.18 <0.9.0;\n\ncontract CrateContract {\n    uint256 public crateCounter;\n\n    event ViewCrate(\n        uint256 id,\n        string title,\n        string category,\n        string description,\n        string imageUrl,\n        address owner,\n        address creator,\n        uint256 amount,\n        bool isSalable,\n        uint256 updateAt,\n        uint256 createAt\n    );\n\n    struct Crate {\n        uint256 id;\n        string title;\n        string category;\n        string description;\n        string imageUrl;\n        address owner;\n        address creator;\n        uint256 amount;\n        bool isSalable;\n        uint256 updateAt;\n        uint256 createAt;\n    }\n\n    mapping(uint256 => Crate) public crates;\n\n    constructor() {\n        crates[crateCounter] = Crate(\n            crateCounter,\n            \"Genesis\",\n            \"Smart Contract\",\n            \"The first crate\",\n            \"https://github.com/metalpoch/crypto-crate\",\n            msg.sender,\n            msg.sender,\n            10000 * 10e18,\n            false,\n            block.timestamp,\n            block.timestamp\n        );\n        crateCounter++;\n    }\n\n    function stringComparator(string memory str1, string memory str2)\n        internal\n        pure\n        returns (bool)\n    {\n        return\n            keccak256(abi.encodePacked(str1)) ==\n            keccak256(abi.encodePacked(str2));\n    }\n\n    function createCrate(\n        string memory _title,\n        string memory _category,\n        string memory _description,\n        string memory _imageUrl,\n        uint256 _amount,\n        bool _isSalable\n    ) public {\n        crates[crateCounter] = Crate(\n            crateCounter,\n            _title,\n            _category,\n            _description,\n            _imageUrl,\n            msg.sender,\n            msg.sender,\n            _amount * 10e18,\n            _isSalable,\n            block.timestamp,\n            block.timestamp\n        );\n        crateCounter++;\n\n        emit ViewCrate(\n            crateCounter,\n            _title,\n            _category,\n            _description,\n            _imageUrl,\n            msg.sender,\n            msg.sender,\n            _amount,\n            _isSalable,\n            block.timestamp,\n            block.timestamp\n        );\n    }\n\n    function updateCrate(\n        uint256 _id,\n        string memory _title,\n        string memory _category,\n        string memory _description,\n        string memory _imageUrl,\n        uint256 _amount,\n        bool _isSalable\n    ) public {\n        require(\n            msg.sender == crates[_id].owner,\n            \"You can only update your products\"\n        );\n\n        crates[_id].title = _title;\n        crates[_id].category = _category;\n        crates[_id].description = _description;\n        crates[_id].imageUrl = _imageUrl;\n        crates[_id].amount = _amount  * 10e18 ;\n        crates[_id].isSalable = _isSalable;\n        crates[_id].updateAt = block.timestamp;\n\n        emit ViewCrate(\n            crateCounter,\n            _title,\n            _category,\n            _description,\n            _imageUrl,\n            msg.sender,\n            msg.sender,\n            _amount,\n            _isSalable,\n            block.timestamp,\n            block.timestamp\n        );\n    }\n\n    function buyCrate(address payable _recipient, uint256 _id) public payable {\n        require(crates[_id].isSalable == true, \"The crate is not for sale\");\n        require(msg.value * 10e18 == crates[_id].amount, \"Insufficient amount\");\n\n        _recipient.transfer(crates[_id].amount);\n        crates[_id].owner = msg.sender;\n    }\n\n    function getCratesByOwner(address _owner)\n        public\n        view\n        returns (Crate[] memory)\n    {\n        uint256 count = 0;\n        for (uint256 i = 0; i < crateCounter; i++) {\n            if (crates[i].owner == _owner) {\n                count++;\n            }\n        }\n\n        Crate[] memory result = new Crate[](count);\n        uint256 index = 0;\n        for (uint256 i = 0; i < crateCounter; i++) {\n            if (crates[i].owner == _owner) {\n                result[index] = crates[i];\n                index++;\n            }\n        }\n\n        return result;\n    }\n\n    function getCratesByCategory(string memory _category)\n        public\n        view\n        returns (Crate[] memory)\n    {\n        uint256 count = 0;\n        for (uint256 i = 0; i < crateCounter; i++) {\n            if (stringComparator(crates[i].category, _category)) {\n                count++;\n            }\n        }\n\n        Crate[] memory result = new Crate[](count);\n        uint256 index = 0;\n        for (uint256 i = 0; i < crateCounter; i++) {\n            if (stringComparator(crates[i].category, _category)) {\n                result[index] = crates[i];\n                index++;\n            }\n        }\n\n        return result;\n    }\n}\n",
  "sourcePath": "/home/poch/Develop/crypto-crate/blockchain/contracts/CrateContract.sol",
  "compiler": {
    "name": "solc",
    "version": "0.8.19+commit.7dd6d404.Emscripten.clang"
  },
  "schemaVersion": "3.4.16",
  "updatedAt": "2023-10-26T02:28:52.710Z",
  "networkType": "ethereum",
  "devdoc": {
    "kind": "dev",
    "methods": {},
    "version": 1
  },
  "userdoc": {
    "kind": "user",
    "methods": {},
    "version": 1
  }
}