{
  "contractName": "CratenautContract",
  "abi": [
    {
      "inputs": [],
      "stateMutability": "nonpayable",
      "type": "constructor"
    },
    {
      "anonymous": false,
      "inputs": [
        {
          "indexed": false,
          "internalType": "string",
          "name": "alias_",
          "type": "string"
        },
        {
          "indexed": false,
          "internalType": "uint8",
          "name": "plan",
          "type": "uint8"
        },
        {
          "indexed": false,
          "internalType": "string",
          "name": "img",
          "type": "string"
        },
        {
          "indexed": false,
          "internalType": "uint256",
          "name": "planRenewal",
          "type": "uint256"
        },
        {
          "indexed": false,
          "internalType": "uint256",
          "name": "updateAt",
          "type": "uint256"
        },
        {
          "indexed": false,
          "internalType": "uint256",
          "name": "createAt",
          "type": "uint256"
        }
      ],
      "name": "ViewCratenaut",
      "type": "event"
    },
    {
      "inputs": [
        {
          "internalType": "address",
          "name": "",
          "type": "address"
        }
      ],
      "name": "cratenauts",
      "outputs": [
        {
          "internalType": "string",
          "name": "alias_",
          "type": "string"
        },
        {
          "internalType": "uint8",
          "name": "plan",
          "type": "uint8"
        },
        {
          "internalType": "string",
          "name": "img",
          "type": "string"
        },
        {
          "internalType": "uint256",
          "name": "planRenewal",
          "type": "uint256"
        },
        {
          "internalType": "uint256",
          "name": "updateAt",
          "type": "uint256"
        },
        {
          "internalType": "uint256",
          "name": "createAt",
          "type": "uint256"
        }
      ],
      "stateMutability": "view",
      "type": "function",
      "constant": true
    },
    {
      "inputs": [
        {
          "internalType": "string",
          "name": "_alias_",
          "type": "string"
        }
      ],
      "name": "addCratenaut",
      "outputs": [],
      "stateMutability": "nonpayable",
      "type": "function"
    },
    {
      "inputs": [
        {
          "internalType": "string",
          "name": "_url",
          "type": "string"
        }
      ],
      "name": "updateImg",
      "outputs": [],
      "stateMutability": "nonpayable",
      "type": "function"
    },
    {
      "inputs": [
        {
          "internalType": "uint8",
          "name": "_plan",
          "type": "uint8"
        }
      ],
      "name": "updatePlan",
      "outputs": [],
      "stateMutability": "payable",
      "type": "function",
      "payable": true
    }
  ],
  "bytecode": "0x60806040523480156200001157600080fd5b50336000806101000a81548173ffffffffffffffffffffffffffffffffffffffff021916908373ffffffffffffffffffffffffffffffffffffffff1602179055506040518060c001604052806040518060400160405280600481526020017f726f6f74000000000000000000000000000000000000000000000000000000008152508152602001600160ff1681526020016040518060200160405280600081525081526020016000815260200142815260200142815250600160003373ffffffffffffffffffffffffffffffffffffffff1673ffffffffffffffffffffffffffffffffffffffff16815260200190815260200160002060008201518160000190816200011e9190620003f9565b5060208201518160010160006101000a81548160ff021916908360ff1602179055506040820151816002019081620001579190620003f9565b50606082015181600301556080820151816004015560a08201518160050155905050620004e0565b600081519050919050565b7f4e487b7100000000000000000000000000000000000000000000000000000000600052604160045260246000fd5b7f4e487b7100000000000000000000000000000000000000000000000000000000600052602260045260246000fd5b600060028204905060018216806200020157607f821691505b602082108103620002175762000216620001b9565b5b50919050565b60008190508160005260206000209050919050565b60006020601f8301049050919050565b600082821b905092915050565b600060088302620002817fffffffffffffffffffffffffffffffffffffffffffffffffffffffffffffffff8262000242565b6200028d868362000242565b95508019841693508086168417925050509392505050565b6000819050919050565b6000819050919050565b6000620002da620002d4620002ce84620002a5565b620002af565b620002a5565b9050919050565b6000819050919050565b620002f683620002b9565b6200030e6200030582620002e1565b8484546200024f565b825550505050565b600090565b6200032562000316565b62000332818484620002eb565b505050565b5b818110156200035a576200034e6000826200031b565b60018101905062000338565b5050565b601f821115620003a95762000373816200021d565b6200037e8462000232565b810160208510156200038e578190505b620003a66200039d8562000232565b83018262000337565b50505b505050565b600082821c905092915050565b6000620003ce60001984600802620003ae565b1980831691505092915050565b6000620003e98383620003bb565b9150826002028217905092915050565b62000404826200017f565b67ffffffffffffffff81111562000420576200041f6200018a565b5b6200042c8254620001e8565b620004398282856200035e565b600060209050601f8311600181146200047157600084156200045c578287015190505b620004688582620003db565b865550620004d8565b601f19841662000481866200021d565b60005b82811015620004ab5784890151825560018201915060208501945060208101905062000484565b86831015620004cb5784890151620004c7601f891682620003bb565b8355505b6001600288020188555050505b505050505050565b6116fd80620004f06000396000f3fe60806040526004361061003f5760003560e01c80634342c666146100445780636a82e7ce146100605780636e09685c146100a257806395a89983146100cb575b600080fd5b61005e60048036038101906100599190610c0c565b6100f4565b005b34801561006c57600080fd5b5061008760048036038101906100829190610c97565b6105af565b60405161009996959493929190610d7c565b60405180910390f35b3480156100ae57600080fd5b506100c960048036038101906100c49190610f20565b610708565b005b3480156100d757600080fd5b506100f260048036038101906100ed9190610f20565b6109c8565b005b60018060003373ffffffffffffffffffffffffffffffffffffffff1673ffffffffffffffffffffffffffffffffffffffff16815260200190815260200160002060010160009054906101000a900460ff1660ff1611610188576040517f08c379a000000000000000000000000000000000000000000000000000000000815260040161017f90610fb5565b60405180910390fd5b600080600060038460ff16036101c35767a688906bd8b000009050600292506101b1601e610b8e565b426101bc9190611004565b9150610230565b60048460ff16036101fa57680340aad21b3b7000009050600392506101e860b4610b8e565b426101f39190611004565b915061022f565b60058460ff160361022e5768056bc75e2d6310000090506004925061022061016d610b8e565b4261022b9190611004565b91505b5b5b60008460ff16118015610247575060048460ff1611155b610286576040517f08c379a000000000000000000000000000000000000000000000000000000000815260040161027d90611084565b60405180910390fd5b8034146102c8576040517f08c379a00000000000000000000000000000000000000000000000000000000081526004016102bf906110f0565b60405180910390fd5b60008054906101000a900473ffffffffffffffffffffffffffffffffffffffff1673ffffffffffffffffffffffffffffffffffffffff166108fc349081150290604051600060405180830381858888f1935050505015801561032e573d6000803e3d6000fd5b5082600160003373ffffffffffffffffffffffffffffffffffffffff1673ffffffffffffffffffffffffffffffffffffffff16815260200190815260200160002060010160006101000a81548160ff021916908360ff16021790555081600160003373ffffffffffffffffffffffffffffffffffffffff1673ffffffffffffffffffffffffffffffffffffffff168152602001908152602001600020600301819055507f578a2cffe975c27f2c8060d75f365005ea3b3f19194550c6c74254e15ca5b6a5600160003373ffffffffffffffffffffffffffffffffffffffff1673ffffffffffffffffffffffffffffffffffffffff168152602001908152602001600020600001600160003373ffffffffffffffffffffffffffffffffffffffff1673ffffffffffffffffffffffffffffffffffffffff16815260200190815260200160002060010160009054906101000a900460ff16600160003373ffffffffffffffffffffffffffffffffffffffff1673ffffffffffffffffffffffffffffffffffffffff168152602001908152602001600020600201600160003373ffffffffffffffffffffffffffffffffffffffff1673ffffffffffffffffffffffffffffffffffffffff16815260200190815260200160002060030154600160003373ffffffffffffffffffffffffffffffffffffffff1673ffffffffffffffffffffffffffffffffffffffff16815260200190815260200160002060040154600160003373ffffffffffffffffffffffffffffffffffffffff1673ffffffffffffffffffffffffffffffffffffffff168152602001908152602001600020600501546040516105a196959493929190611209565b60405180910390a150505050565b60016020528060005260406000206000915090508060000180546105d29061113f565b80601f01602080910402602001604051908101604052809291908181526020018280546105fe9061113f565b801561064b5780601f106106205761010080835404028352916020019161064b565b820191906000526020600020905b81548152906001019060200180831161062e57829003601f168201915b5050505050908060010160009054906101000a900460ff16908060020180546106739061113f565b80601f016020809104026020016040519081016040528092919081815260200182805461069f9061113f565b80156106ec5780601f106106c1576101008083540402835291602001916106ec565b820191906000526020600020905b8154815290600101906020018083116106cf57829003601f168201915b5050505050908060030154908060040154908060050154905086565b6000600160003373ffffffffffffffffffffffffffffffffffffffff1673ffffffffffffffffffffffffffffffffffffffff16815260200190815260200160002060010160009054906101000a900460ff1660ff161161079d576040517f08c379a000000000000000000000000000000000000000000000000000000000815260040161079490610fb5565b60405180910390fd5b80600160003373ffffffffffffffffffffffffffffffffffffffff1673ffffffffffffffffffffffffffffffffffffffff16815260200190815260200160002060020190816107ec919061140f565b507f578a2cffe975c27f2c8060d75f365005ea3b3f19194550c6c74254e15ca5b6a5600160003373ffffffffffffffffffffffffffffffffffffffff1673ffffffffffffffffffffffffffffffffffffffff168152602001908152602001600020600001600160003373ffffffffffffffffffffffffffffffffffffffff1673ffffffffffffffffffffffffffffffffffffffff16815260200190815260200160002060010160009054906101000a900460ff16600160003373ffffffffffffffffffffffffffffffffffffffff1673ffffffffffffffffffffffffffffffffffffffff168152602001908152602001600020600201600160003373ffffffffffffffffffffffffffffffffffffffff1673ffffffffffffffffffffffffffffffffffffffff16815260200190815260200160002060030154600160003373ffffffffffffffffffffffffffffffffffffffff1673ffffffffffffffffffffffffffffffffffffffff16815260200190815260200160002060040154600160003373ffffffffffffffffffffffffffffffffffffffff1673ffffffffffffffffffffffffffffffffffffffff168152602001908152602001600020600501546040516109bd96959493929190611209565b60405180910390a150565b60018060003373ffffffffffffffffffffffffffffffffffffffff1673ffffffffffffffffffffffffffffffffffffffff16815260200190815260200160002060010160009054906101000a900460ff1660ff1611610a5c576040517f08c379a0000000000000000000000000000000000000000000000000000000008152600401610a5390611553565b60405180910390fd5b6040518060c00160405280828152602001600260ff1681526020016040518060200160405280600081525081526020016000815260200142815260200142815250600160003373ffffffffffffffffffffffffffffffffffffffff1673ffffffffffffffffffffffffffffffffffffffff1681526020019081526020016000206000820151816000019081610af1919061140f565b5060208201518160010160006101000a81548160ff021916908360ff1602179055506040820151816002019081610b28919061140f565b50606082015181600301556080820151816004015560a082015181600501559050507f578a2cffe975c27f2c8060d75f365005ea3b3f19194550c6c74254e15ca5b6a581600260004242604051610b8395949392919061160f565b60405180910390a150565b6000603c80601884610ba0919061168a565b610baa919061168a565b610bb4919061168a565b61ffff169050919050565b6000604051905090565b600080fd5b600080fd5b600060ff82169050919050565b610be981610bd3565b8114610bf457600080fd5b50565b600081359050610c0681610be0565b92915050565b600060208284031215610c2257610c21610bc9565b5b6000610c3084828501610bf7565b91505092915050565b600073ffffffffffffffffffffffffffffffffffffffff82169050919050565b6000610c6482610c39565b9050919050565b610c7481610c59565b8114610c7f57600080fd5b50565b600081359050610c9181610c6b565b92915050565b600060208284031215610cad57610cac610bc9565b5b6000610cbb84828501610c82565b91505092915050565b600081519050919050565b600082825260208201905092915050565b60005b83811015610cfe578082015181840152602081019050610ce3565b60008484015250505050565b6000601f19601f8301169050919050565b6000610d2682610cc4565b610d308185610ccf565b9350610d40818560208601610ce0565b610d4981610d0a565b840191505092915050565b610d5d81610bd3565b82525050565b6000819050919050565b610d7681610d63565b82525050565b600060c0820190508181036000830152610d968189610d1b565b9050610da56020830188610d54565b8181036040830152610db78187610d1b565b9050610dc66060830186610d6d565b610dd36080830185610d6d565b610de060a0830184610d6d565b979650505050505050565b600080fd5b600080fd5b7f4e487b7100000000000000000000000000000000000000000000000000000000600052604160045260246000fd5b610e2d82610d0a565b810181811067ffffffffffffffff82111715610e4c57610e4b610df5565b5b80604052505050565b6000610e5f610bbf565b9050610e6b8282610e24565b919050565b600067ffffffffffffffff821115610e8b57610e8a610df5565b5b610e9482610d0a565b9050602081019050919050565b82818337600083830152505050565b6000610ec3610ebe84610e70565b610e55565b905082815260208101848484011115610edf57610ede610df0565b5b610eea848285610ea1565b509392505050565b600082601f830112610f0757610f06610deb565b5b8135610f17848260208601610eb0565b91505092915050565b600060208284031215610f3657610f35610bc9565b5b600082013567ffffffffffffffff811115610f5457610f53610bce565b5b610f6084828501610ef2565b91505092915050565b7f41646472657373206e6f74207265676973746572656400000000000000000000600082015250565b6000610f9f601683610ccf565b9150610faa82610f69565b602082019050919050565b60006020820190508181036000830152610fce81610f92565b9050919050565b7f4e487b7100000000000000000000000000000000000000000000000000000000600052601160045260246000fd5b600061100f82610d63565b915061101a83610d63565b925082820190508082111561103257611031610fd5565b5b92915050565b7f496e76616c696420706c616e0000000000000000000000000000000000000000600082015250565b600061106e600c83610ccf565b915061107982611038565b602082019050919050565b6000602082019050818103600083015261109d81611061565b9050919050565b7f496e73756666696369656e7420616d6f756e7400000000000000000000000000600082015250565b60006110da601383610ccf565b91506110e5826110a4565b602082019050919050565b60006020820190508181036000830152611109816110cd565b9050919050565b7f4e487b7100000000000000000000000000000000000000000000000000000000600052602260045260246000fd5b6000600282049050600182168061115757607f821691505b60208210810361116a57611169611110565b5b50919050565b60008190508160005260206000209050919050565b600081546111928161113f565b61119c8186610ccf565b945060018216600081146111b757600181146111cd57611200565b60ff198316865281151560200286019350611200565b6111d685611170565b60005b838110156111f8578154818901526001820191506020810190506111d9565b808801955050505b50505092915050565b600060c08201905081810360008301526112238189611185565b90506112326020830188610d54565b81810360408301526112448187611185565b90506112536060830186610d6d565b6112606080830185610d6d565b61126d60a0830184610d6d565b979650505050505050565b60006020601f8301049050919050565b600082821b905092915050565b6000600883026112c57fffffffffffffffffffffffffffffffffffffffffffffffffffffffffffffffff82611288565b6112cf8683611288565b95508019841693508086168417925050509392505050565b6000819050919050565b600061130c61130761130284610d63565b6112e7565b610d63565b9050919050565b6000819050919050565b611326836112f1565b61133a61133282611313565b848454611295565b825550505050565b600090565b61134f611342565b61135a81848461131d565b505050565b5b8181101561137e57611373600082611347565b600181019050611360565b5050565b601f8211156113c35761139481611170565b61139d84611278565b810160208510156113ac578190505b6113c06113b885611278565b83018261135f565b50505b505050565b600082821c905092915050565b60006113e6600019846008026113c8565b1980831691505092915050565b60006113ff83836113d5565b9150826002028217905092915050565b61141882610cc4565b67ffffffffffffffff81111561143157611430610df5565b5b61143b825461113f565b611446828285611382565b600060209050601f8311600181146114795760008415611467578287015190505b61147185826113f3565b8655506114d9565b601f19841661148786611170565b60005b828110156114af5784890151825560018201915060208501945060208101905061148a565b868310156114cc57848901516114c8601f8916826113d5565b8355505b6001600288020188555050505b505050505050565b7f54686973206164647265737320697320616c726561647920726567697374657260008201527f6564000000000000000000000000000000000000000000000000000000000000602082015250565b600061153d602283610ccf565b9150611548826114e1565b604082019050919050565b6000602082019050818103600083015261156c81611530565b9050919050565b6000819050919050565b600061159861159361158e84611573565b6112e7565b610bd3565b9050919050565b6115a88161157d565b82525050565b50565b60006115be600083610ccf565b91506115c9826115ae565b600082019050919050565b6000819050919050565b60006115f96115f46115ef846115d4565b6112e7565b610d63565b9050919050565b611609816115de565b82525050565b600060c08201905081810360008301526116298188610d1b565b9050611638602083018761159f565b8181036040830152611649816115b1565b90506116586060830186611600565b6116656080830185610d6d565b61167260a0830184610d6d565b9695505050505050565b600061ffff82169050919050565b60006116958261167c565b91506116a08361167c565b92508282026116ae8161167c565b91508082146116c0576116bf610fd5565b5b509291505056fea2646970667358221220d3ece98a5437bb7555bcb329a1ea0fd70ff0a5fd6490d2d87eca6fcbb3f73f4464736f6c63430008130033",
  "immutableReferences": {},
  "source": "// SPDX-License-Identifier: MIT\npragma solidity >=0.8.18 <0.9.0;\n\ncontract CratenautContract {\n    address payable private contractOwner;\n\n    struct Cratenaut {\n        string alias_;\n        uint8 plan;\n        string img;\n        uint256 planRenewal;\n        uint256 updateAt;\n        uint256 createAt;\n    }\n\n    event ViewCratenaut(\n        string alias_,\n        uint8 plan,\n        string img,\n        uint256 planRenewal,\n        uint256 updateAt,\n        uint256 createAt\n    );\n\n    mapping(address => Cratenaut) public cratenauts;\n\n    constructor() {\n        contractOwner = payable(msg.sender);\n        cratenauts[msg.sender] = Cratenaut(\n            \"root\",\n            1,\n            \"\",\n            0,\n            block.timestamp,\n            block.timestamp\n        );\n    }\n\n    function dayToTimestamp(uint16 _day) internal pure returns (uint256) {\n        return _day * 24 * 60 * 60;\n    }\n\n    function addCratenaut(string memory _alias_) public {\n        require(\n            cratenauts[msg.sender].plan > 1,\n            \"This address is already registered\"\n        );\n\n        cratenauts[msg.sender] = Cratenaut(\n            _alias_,\n            2,\n            \"\",\n            0,\n            block.timestamp,\n            block.timestamp\n        );\n\n        emit ViewCratenaut(\n            _alias_,\n            2,\n            \"\",\n            0,\n            block.timestamp,\n            block.timestamp\n        );\n    }\n\n    function updateImg(string memory _url) public {\n        require(cratenauts[msg.sender].plan > 0, \"Address not registered\");\n        cratenauts[msg.sender].img = _url;\n\n        emit ViewCratenaut(\n            cratenauts[msg.sender].alias_,\n            cratenauts[msg.sender].plan,\n            cratenauts[msg.sender].img,\n            cratenauts[msg.sender].planRenewal,\n            cratenauts[msg.sender].updateAt,\n            cratenauts[msg.sender].createAt\n        );\n    }\n\n    function updatePlan(uint8 _plan) public payable {\n        require(cratenauts[msg.sender].plan > 1, \"Address not registered\");\n        uint8 newPlan;\n        uint256 planRenewal;\n        uint256 amount;\n        // plan 1 -> admin\n        // plan 2 -> free\n        if (_plan == 3) {\n            amount = 12 * 10 ** 18;\n            newPlan = 2;\n            planRenewal = block.timestamp + dayToTimestamp(30); // now + 30 days\n        } else if (_plan == 4) {\n            amount = 60 * 10 ** 18;\n            newPlan = 3;\n            planRenewal = block.timestamp + dayToTimestamp(180); // now + 180 days\n        } else if (_plan == 5) {\n            amount = 100 * 10 ** 18;\n            newPlan = 4;\n            planRenewal = block.timestamp + dayToTimestamp(365); // now + 365 days\n        }\n\n        require(_plan > 0 && _plan <= 4, \"Invalid plan\");\n        require(msg.value == amount, \"Insufficient amount\");\n\n        contractOwner.transfer(msg.value);\n        cratenauts[msg.sender].plan = newPlan;\n        cratenauts[msg.sender].planRenewal = planRenewal;\n\n        emit ViewCratenaut(\n            cratenauts[msg.sender].alias_,\n            cratenauts[msg.sender].plan,\n            cratenauts[msg.sender].img,\n            cratenauts[msg.sender].planRenewal,\n            cratenauts[msg.sender].updateAt,\n            cratenauts[msg.sender].createAt\n        );\n    }\n}\n",
  "sourcePath": "/home/poch/Develop/crypto-crate/blockchain/contracts/CratenautContract.sol",
  "compiler": {
    "name": "solc",
    "version": "0.8.19+commit.7dd6d404.Emscripten.clang"
  },
  "schemaVersion": "3.4.16",
  "updatedAt": "2023-10-26T02:28:34.517Z",
  "networkType": "ethereum",
  "devdoc": {
    "kind": "dev",
    "methods": {},
    "version": 1
  },
  "userdoc": {
    "kind": "user",
    "methods": {},
    "version": 1
  }
}