{
  "contractName": "CrateContract",
  "abi": [
    {
      "inputs": [],
      "stateMutability": "nonpayable",
      "type": "constructor"
    },
    {
      "anonymous": false,
      "inputs": [
        {
          "indexed": false,
          "internalType": "uint256",
          "name": "id",
          "type": "uint256"
        },
        {
          "indexed": false,
          "internalType": "string",
          "name": "title",
          "type": "string"
        },
        {
          "indexed": false,
          "internalType": "string",
          "name": "description",
          "type": "string"
        },
        {
          "indexed": false,
          "internalType": "string",
          "name": "imageUrl",
          "type": "string"
        },
        {
          "indexed": false,
          "internalType": "bool",
          "name": "premium",
          "type": "bool"
        },
        {
          "indexed": false,
          "internalType": "address",
          "name": "owner",
          "type": "address"
        },
        {
          "indexed": false,
          "internalType": "address",
          "name": "creator",
          "type": "address"
        },
        {
          "indexed": false,
          "internalType": "uint256",
          "name": "amount",
          "type": "uint256"
        },
        {
          "indexed": false,
          "internalType": "bool",
          "name": "isSalable",
          "type": "bool"
        },
        {
          "indexed": false,
          "internalType": "uint256",
          "name": "updateAt",
          "type": "uint256"
        },
        {
          "indexed": false,
          "internalType": "uint256",
          "name": "createAt",
          "type": "uint256"
        }
      ],
      "name": "ViewCrate",
      "type": "event"
    },
    {
      "inputs": [],
      "name": "crateCounter",
      "outputs": [
        {
          "internalType": "uint256",
          "name": "",
          "type": "uint256"
        }
      ],
      "stateMutability": "view",
      "type": "function",
      "constant": true
    },
    {
      "inputs": [
        {
          "internalType": "uint256",
          "name": "",
          "type": "uint256"
        }
      ],
      "name": "crates",
      "outputs": [
        {
          "internalType": "uint256",
          "name": "id",
          "type": "uint256"
        },
        {
          "internalType": "string",
          "name": "title",
          "type": "string"
        },
        {
          "internalType": "string",
          "name": "description",
          "type": "string"
        },
        {
          "internalType": "string",
          "name": "imageUrl",
          "type": "string"
        },
        {
          "internalType": "bool",
          "name": "premium",
          "type": "bool"
        },
        {
          "internalType": "address",
          "name": "owner",
          "type": "address"
        },
        {
          "internalType": "address",
          "name": "creator",
          "type": "address"
        },
        {
          "internalType": "uint256",
          "name": "amount",
          "type": "uint256"
        },
        {
          "internalType": "bool",
          "name": "isSalable",
          "type": "bool"
        },
        {
          "internalType": "uint256",
          "name": "updateAt",
          "type": "uint256"
        },
        {
          "internalType": "uint256",
          "name": "createAt",
          "type": "uint256"
        }
      ],
      "stateMutability": "view",
      "type": "function",
      "constant": true
    },
    {
      "inputs": [
        {
          "internalType": "string",
          "name": "_title",
          "type": "string"
        },
        {
          "internalType": "string",
          "name": "_description",
          "type": "string"
        },
        {
          "internalType": "string",
          "name": "_imageUrl",
          "type": "string"
        },
        {
          "internalType": "bool",
          "name": "_premium",
          "type": "bool"
        },
        {
          "internalType": "uint256",
          "name": "_amount",
          "type": "uint256"
        },
        {
          "internalType": "bool",
          "name": "_isSalable",
          "type": "bool"
        }
      ],
      "name": "createCrate",
      "outputs": [],
      "stateMutability": "nonpayable",
      "type": "function"
    },
    {
      "inputs": [
        {
          "internalType": "uint256",
          "name": "_id",
          "type": "uint256"
        },
        {
          "internalType": "string",
          "name": "_title",
          "type": "string"
        },
        {
          "internalType": "string",
          "name": "_description",
          "type": "string"
        },
        {
          "internalType": "string",
          "name": "_imageUrl",
          "type": "string"
        },
        {
          "internalType": "bool",
          "name": "_premium",
          "type": "bool"
        },
        {
          "internalType": "uint256",
          "name": "_amount",
          "type": "uint256"
        },
        {
          "internalType": "bool",
          "name": "_isSalable",
          "type": "bool"
        }
      ],
      "name": "updateCrate",
      "outputs": [],
      "stateMutability": "nonpayable",
      "type": "function"
    },
    {
      "inputs": [
        {
          "internalType": "address payable",
          "name": "_recipient",
          "type": "address"
        },
        {
          "internalType": "uint256",
          "name": "_id",
          "type": "uint256"
        }
      ],
      "name": "buyCrate",
      "outputs": [],
      "stateMutability": "payable",
      "type": "function",
      "payable": true
    },
    {
      "inputs": [
        {
          "internalType": "address",
          "name": "_owner",
          "type": "address"
        }
      ],
      "name": "getCratesByOwner",
      "outputs": [
        {
          "components": [
            {
              "internalType": "uint256",
              "name": "id",
              "type": "uint256"
            },
            {
              "internalType": "string",
              "name": "title",
              "type": "string"
            },
            {
              "internalType": "string",
              "name": "description",
              "type": "string"
            },
            {
              "internalType": "string",
              "name": "imageUrl",
              "type": "string"
            },
            {
              "internalType": "bool",
              "name": "premium",
              "type": "bool"
            },
            {
              "internalType": "address",
              "name": "owner",
              "type": "address"
            },
            {
              "internalType": "address",
              "name": "creator",
              "type": "address"
            },
            {
              "internalType": "uint256",
              "name": "amount",
              "type": "uint256"
            },
            {
              "internalType": "bool",
              "name": "isSalable",
              "type": "bool"
            },
            {
              "internalType": "uint256",
              "name": "updateAt",
              "type": "uint256"
            },
            {
              "internalType": "uint256",
              "name": "createAt",
              "type": "uint256"
            }
          ],
          "internalType": "struct CrateContract.Crate[]",
          "name": "",
          "type": "tuple[]"
        }
      ],
      "stateMutability": "view",
      "type": "function",
      "constant": true
    }
  ],
  "bytecode": "0x60806040523480156200001157600080fd5b5060405180610160016040528060005481526020016040518060400160405280600781526020017f47656e657369730000000000000000000000000000000000000000000000000081525081526020016040518060400160405280600f81526020017f54686520666972737420637261746500000000000000000000000000000000008152508152602001604051806060016040528060298152602001620022e86029913981526020016001151581526020013373ffffffffffffffffffffffffffffffffffffffff1681526020013373ffffffffffffffffffffffffffffffffffffffff168152602001600081526020016000151581526020014281526020014281525060016000805481526020019081526020016000206000820151816000015560208201518160010190816200014b919062000507565b50604082015181600201908162000163919062000507565b5060608201518160030190816200017b919062000507565b5060808201518160040160006101000a81548160ff02191690831515021790555060a08201518160040160016101000a81548173ffffffffffffffffffffffffffffffffffffffff021916908373ffffffffffffffffffffffffffffffffffffffff16021790555060c08201518160050160006101000a81548173ffffffffffffffffffffffffffffffffffffffff021916908373ffffffffffffffffffffffffffffffffffffffff16021790555060e082015181600601556101008201518160070160006101000a81548160ff0219169083151502179055506101208201518160080155610140820151816009015590505060008081548092919062000282906200061d565b91905055506200066a565b600081519050919050565b7f4e487b7100000000000000000000000000000000000000000000000000000000600052604160045260246000fd5b7f4e487b7100000000000000000000000000000000000000000000000000000000600052602260045260246000fd5b600060028204905060018216806200030f57607f821691505b602082108103620003255762000324620002c7565b5b50919050565b60008190508160005260206000209050919050565b60006020601f8301049050919050565b600082821b905092915050565b6000600883026200038f7fffffffffffffffffffffffffffffffffffffffffffffffffffffffffffffffff8262000350565b6200039b868362000350565b95508019841693508086168417925050509392505050565b6000819050919050565b6000819050919050565b6000620003e8620003e2620003dc84620003b3565b620003bd565b620003b3565b9050919050565b6000819050919050565b6200040483620003c7565b6200041c6200041382620003ef565b8484546200035d565b825550505050565b600090565b6200043362000424565b62000440818484620003f9565b505050565b5b8181101562000468576200045c60008262000429565b60018101905062000446565b5050565b601f821115620004b75762000481816200032b565b6200048c8462000340565b810160208510156200049c578190505b620004b4620004ab8562000340565b83018262000445565b50505b505050565b600082821c905092915050565b6000620004dc60001984600802620004bc565b1980831691505092915050565b6000620004f78383620004c9565b9150826002028217905092915050565b62000512826200028d565b67ffffffffffffffff8111156200052e576200052d62000298565b5b6200053a8254620002f6565b620005478282856200046c565b600060209050601f8311600181146200057f57600084156200056a578287015190505b620005768582620004e9565b865550620005e6565b601f1984166200058f866200032b565b60005b82811015620005b95784890151825560018201915060208501945060208101905062000592565b86831015620005d95784890151620005d5601f891682620004c9565b8355505b6001600288020188555050505b505050505050565b7f4e487b7100000000000000000000000000000000000000000000000000000000600052601160045260246000fd5b60006200062a82620003b3565b91507fffffffffffffffffffffffffffffffffffffffffffffffffffffffffffffffff82036200065f576200065e620005ee565b5b600182019050919050565b611c6e806200067a6000396000f3fe6080604052600436106100555760003560e01c80630355ff1d1461005a57806320e8edbc146100835780637e84cfdd146100ca578063c82f710714610107578063e4571ff714610123578063ea37029c1461014c575b600080fd5b34801561006657600080fd5b50610081600480360381019061007c919061105e565b610177565b005b34801561008f57600080fd5b506100aa60048036038101906100a5919061113f565b6103b3565b6040516100c19b9a9998979695949392919061124a565b60405180910390f35b3480156100d657600080fd5b506100f160048036038101906100ec9190611336565b6105ff565b6040516100fe9190611599565b60405180910390f35b610121600480360381019061011c91906115f9565b610a95565b005b34801561012f57600080fd5b5061014a60048036038101906101459190611639565b610c0e565b005b34801561015857600080fd5b50610161610e06565b60405161016e919061172f565b60405180910390f35b604051806101600160405280600054815260200187815260200186815260200185815260200184151581526020013373ffffffffffffffffffffffffffffffffffffffff1681526020013373ffffffffffffffffffffffffffffffffffffffff16815260200183815260200182151581526020014281526020014281525060016000805481526020019081526020016000206000820151816000015560208201518160010190816102289190611956565b50604082015181600201908161023e9190611956565b5060608201518160030190816102549190611956565b5060808201518160040160006101000a81548160ff02191690831515021790555060a08201518160040160016101000a81548173ffffffffffffffffffffffffffffffffffffffff021916908373ffffffffffffffffffffffffffffffffffffffff16021790555060c08201518160050160006101000a81548173ffffffffffffffffffffffffffffffffffffffff021916908373ffffffffffffffffffffffffffffffffffffffff16021790555060e082015181600601556101008201518160070160006101000a81548160ff0219169083151502179055506101208201518160080155610140820151816009015590505060008081548092919061035990611a57565b91905055507fbe7f8d647dce3b68d0ea0cb3588ffbfe39462069fe53798261a388c46a7c3ee8600054878787873333898942426040516103a39b9a9998979695949392919061124a565b60405180910390a1505050505050565b60016020528060005260406000206000915090508060000154908060010180546103dc90611779565b80601f016020809104026020016040519081016040528092919081815260200182805461040890611779565b80156104555780601f1061042a57610100808354040283529160200191610455565b820191906000526020600020905b81548152906001019060200180831161043857829003601f168201915b50505050509080600201805461046a90611779565b80601f016020809104026020016040519081016040528092919081815260200182805461049690611779565b80156104e35780601f106104b8576101008083540402835291602001916104e3565b820191906000526020600020905b8154815290600101906020018083116104c657829003601f168201915b5050505050908060030180546104f890611779565b80601f016020809104026020016040519081016040528092919081815260200182805461052490611779565b80156105715780601f1061054657610100808354040283529160200191610571565b820191906000526020600020905b81548152906001019060200180831161055457829003601f168201915b5050505050908060040160009054906101000a900460ff16908060040160019054906101000a900473ffffffffffffffffffffffffffffffffffffffff16908060050160009054906101000a900473ffffffffffffffffffffffffffffffffffffffff16908060060154908060070160009054906101000a900460ff1690806008015490806009015490508b565b60606000805b60005481101561069a578373ffffffffffffffffffffffffffffffffffffffff166001600083815260200190815260200160002060040160019054906101000a900473ffffffffffffffffffffffffffffffffffffffff1673ffffffffffffffffffffffffffffffffffffffff160361068757818061068390611a57565b9250505b808061069290611a57565b915050610605565b5060008167ffffffffffffffff8111156106b7576106b6610ec5565b5b6040519080825280602002602001820160405280156106f057816020015b6106dd610e0c565b8152602001906001900390816106d55790505b5090506000805b600054811015610a89578573ffffffffffffffffffffffffffffffffffffffff166001600083815260200190815260200160002060040160019054906101000a900473ffffffffffffffffffffffffffffffffffffffff1673ffffffffffffffffffffffffffffffffffffffff1603610a76576001600082815260200190815260200160002060405180610160016040529081600082015481526020016001820180546107a390611779565b80601f01602080910402602001604051908101604052809291908181526020018280546107cf90611779565b801561081c5780601f106107f15761010080835404028352916020019161081c565b820191906000526020600020905b8154815290600101906020018083116107ff57829003601f168201915b5050505050815260200160028201805461083590611779565b80601f016020809104026020016040519081016040528092919081815260200182805461086190611779565b80156108ae5780601f10610883576101008083540402835291602001916108ae565b820191906000526020600020905b81548152906001019060200180831161089157829003601f168201915b505050505081526020016003820180546108c790611779565b80601f01602080910402602001604051908101604052809291908181526020018280546108f390611779565b80156109405780601f1061091557610100808354040283529160200191610940565b820191906000526020600020905b81548152906001019060200180831161092357829003601f168201915b505050505081526020016004820160009054906101000a900460ff161515151581526020016004820160019054906101000a900473ffffffffffffffffffffffffffffffffffffffff1673ffffffffffffffffffffffffffffffffffffffff1673ffffffffffffffffffffffffffffffffffffffff1681526020016005820160009054906101000a900473ffffffffffffffffffffffffffffffffffffffff1673ffffffffffffffffffffffffffffffffffffffff1673ffffffffffffffffffffffffffffffffffffffff168152602001600682015481526020016007820160009054906101000a900460ff1615151515815260200160088201548152602001600982015481525050838381518110610a5c57610a5b611a9f565b5b60200260200101819052508180610a7290611a57565b9250505b8080610a8190611a57565b9150506106f7565b50819350505050919050565b600115156001600083815260200190815260200160002060070160009054906101000a900460ff16151514610aff576040517f08c379a0000000000000000000000000000000000000000000000000000000008152600401610af690611b1a565b60405180910390fd5b6001600082815260200190815260200160002060060154341015610b58576040517f08c379a0000000000000000000000000000000000000000000000000000000008152600401610b4f90611b86565b60405180910390fd5b8173ffffffffffffffffffffffffffffffffffffffff166108fc60016000848152602001908152602001600020600601549081150290604051600060405180830381858888f19350505050158015610bb4573d6000803e3d6000fd5b50336001600083815260200190815260200160002060040160016101000a81548173ffffffffffffffffffffffffffffffffffffffff021916908373ffffffffffffffffffffffffffffffffffffffff1602179055505050565b6001600088815260200190815260200160002060040160019054906101000a900473ffffffffffffffffffffffffffffffffffffffff1673ffffffffffffffffffffffffffffffffffffffff163373ffffffffffffffffffffffffffffffffffffffff1614610cb2576040517f08c379a0000000000000000000000000000000000000000000000000000000008152600401610ca990611c18565b60405180910390fd5b85600160008981526020019081526020016000206001019081610cd59190611956565b5084600160008981526020019081526020016000206002019081610cf99190611956565b5083600160008981526020019081526020016000206003019081610d1d9190611956565b50826001600089815260200190815260200160002060040160006101000a81548160ff021916908315150217905550816001600089815260200190815260200160002060060181905550806001600089815260200190815260200160002060070160006101000a81548160ff0219169083151502179055504260016000898152602001908152602001600020600801819055507fbe7f8d647dce3b68d0ea0cb3588ffbfe39462069fe53798261a388c46a7c3ee860005487878787333389894242604051610df59b9a9998979695949392919061124a565b60405180910390a150505050505050565b60005481565b60405180610160016040528060008152602001606081526020016060815260200160608152602001600015158152602001600073ffffffffffffffffffffffffffffffffffffffff168152602001600073ffffffffffffffffffffffffffffffffffffffff1681526020016000815260200160001515815260200160008152602001600081525090565b6000604051905090565b600080fd5b600080fd5b600080fd5b600080fd5b6000601f19601f8301169050919050565b7f4e487b7100000000000000000000000000000000000000000000000000000000600052604160045260246000fd5b610efd82610eb4565b810181811067ffffffffffffffff82111715610f1c57610f1b610ec5565b5b80604052505050565b6000610f2f610e96565b9050610f3b8282610ef4565b919050565b600067ffffffffffffffff821115610f5b57610f5a610ec5565b5b610f6482610eb4565b9050602081019050919050565b82818337600083830152505050565b6000610f93610f8e84610f40565b610f25565b905082815260208101848484011115610faf57610fae610eaf565b5b610fba848285610f71565b509392505050565b600082601f830112610fd757610fd6610eaa565b5b8135610fe7848260208601610f80565b91505092915050565b60008115159050919050565b61100581610ff0565b811461101057600080fd5b50565b60008135905061102281610ffc565b92915050565b6000819050919050565b61103b81611028565b811461104657600080fd5b50565b60008135905061105881611032565b92915050565b60008060008060008060c0878903121561107b5761107a610ea0565b5b600087013567ffffffffffffffff81111561109957611098610ea5565b5b6110a589828a01610fc2565b965050602087013567ffffffffffffffff8111156110c6576110c5610ea5565b5b6110d289828a01610fc2565b955050604087013567ffffffffffffffff8111156110f3576110f2610ea5565b5b6110ff89828a01610fc2565b945050606061111089828a01611013565b935050608061112189828a01611049565b92505060a061113289828a01611013565b9150509295509295509295565b60006020828403121561115557611154610ea0565b5b600061116384828501611049565b91505092915050565b61117581611028565b82525050565b600081519050919050565b600082825260208201905092915050565b60005b838110156111b557808201518184015260208101905061119a565b60008484015250505050565b60006111cc8261117b565b6111d68185611186565b93506111e6818560208601611197565b6111ef81610eb4565b840191505092915050565b61120381610ff0565b82525050565b600073ffffffffffffffffffffffffffffffffffffffff82169050919050565b600061123482611209565b9050919050565b61124481611229565b82525050565b600061016082019050611260600083018e61116c565b8181036020830152611272818d6111c1565b90508181036040830152611286818c6111c1565b9050818103606083015261129a818b6111c1565b90506112a9608083018a6111fa565b6112b660a083018961123b565b6112c360c083018861123b565b6112d060e083018761116c565b6112de6101008301866111fa565b6112ec61012083018561116c565b6112fa61014083018461116c565b9c9b505050505050505050505050565b61131381611229565b811461131e57600080fd5b50565b6000813590506113308161130a565b92915050565b60006020828403121561134c5761134b610ea0565b5b600061135a84828501611321565b91505092915050565b600081519050919050565b600082825260208201905092915050565b6000819050602082019050919050565b61139881611028565b82525050565b600082825260208201905092915050565b60006113ba8261117b565b6113c4818561139e565b93506113d4818560208601611197565b6113dd81610eb4565b840191505092915050565b6113f181610ff0565b82525050565b61140081611229565b82525050565b60006101608301600083015161141f600086018261138f565b506020830151848203602086015261143782826113af565b9150506040830151848203604086015261145182826113af565b9150506060830151848203606086015261146b82826113af565b915050608083015161148060808601826113e8565b5060a083015161149360a08601826113f7565b5060c08301516114a660c08601826113f7565b5060e08301516114b960e086018261138f565b506101008301516114ce6101008601826113e8565b506101208301516114e361012086018261138f565b506101408301516114f861014086018261138f565b508091505092915050565b600061150f8383611406565b905092915050565b6000602082019050919050565b600061152f82611363565b611539818561136e565b93508360208202850161154b8561137f565b8060005b8581101561158757848403895281516115688582611503565b945061157383611517565b925060208a0199505060018101905061154f565b50829750879550505050505092915050565b600060208201905081810360008301526115b38184611524565b905092915050565b60006115c682611209565b9050919050565b6115d6816115bb565b81146115e157600080fd5b50565b6000813590506115f3816115cd565b92915050565b600080604083850312156116105761160f610ea0565b5b600061161e858286016115e4565b925050602061162f85828601611049565b9150509250929050565b600080600080600080600060e0888a03121561165857611657610ea0565b5b60006116668a828b01611049565b975050602088013567ffffffffffffffff81111561168757611686610ea5565b5b6116938a828b01610fc2565b965050604088013567ffffffffffffffff8111156116b4576116b3610ea5565b5b6116c08a828b01610fc2565b955050606088013567ffffffffffffffff8111156116e1576116e0610ea5565b5b6116ed8a828b01610fc2565b94505060806116fe8a828b01611013565b93505060a061170f8a828b01611049565b92505060c06117208a828b01611013565b91505092959891949750929550565b6000602082019050611744600083018461116c565b92915050565b7f4e487b7100000000000000000000000000000000000000000000000000000000600052602260045260246000fd5b6000600282049050600182168061179157607f821691505b6020821081036117a4576117a361174a565b5b50919050565b60008190508160005260206000209050919050565b60006020601f8301049050919050565b600082821b905092915050565b60006008830261180c7fffffffffffffffffffffffffffffffffffffffffffffffffffffffffffffffff826117cf565b61181686836117cf565b95508019841693508086168417925050509392505050565b6000819050919050565b600061185361184e61184984611028565b61182e565b611028565b9050919050565b6000819050919050565b61186d83611838565b6118816118798261185a565b8484546117dc565b825550505050565b600090565b611896611889565b6118a1818484611864565b505050565b5b818110156118c5576118ba60008261188e565b6001810190506118a7565b5050565b601f82111561190a576118db816117aa565b6118e4846117bf565b810160208510156118f3578190505b6119076118ff856117bf565b8301826118a6565b50505b505050565b600082821c905092915050565b600061192d6000198460080261190f565b1980831691505092915050565b6000611946838361191c565b9150826002028217905092915050565b61195f8261117b565b67ffffffffffffffff81111561197857611977610ec5565b5b6119828254611779565b61198d8282856118c9565b600060209050601f8311600181146119c057600084156119ae578287015190505b6119b8858261193a565b865550611a20565b601f1984166119ce866117aa565b60005b828110156119f6578489015182556001820191506020850194506020810190506119d1565b86831015611a135784890151611a0f601f89168261191c565b8355505b6001600288020188555050505b505050505050565b7f4e487b7100000000000000000000000000000000000000000000000000000000600052601160045260246000fd5b6000611a6282611028565b91507fffffffffffffffffffffffffffffffffffffffffffffffffffffffffffffffff8203611a9457611a93611a28565b5b600182019050919050565b7f4e487b7100000000000000000000000000000000000000000000000000000000600052603260045260246000fd5b7f546865206372617465206973206e6f7420666f722073616c6500000000000000600082015250565b6000611b04601983611186565b9150611b0f82611ace565b602082019050919050565b60006020820190508181036000830152611b3381611af7565b9050919050565b7f496e73756666696369656e7420616d6f756e7400000000000000000000000000600082015250565b6000611b70601383611186565b9150611b7b82611b3a565b602082019050919050565b60006020820190508181036000830152611b9f81611b63565b9050919050565b7f596f752063616e206f6e6c792075706461746520796f75722070726f6475637460008201527f7300000000000000000000000000000000000000000000000000000000000000602082015250565b6000611c02602183611186565b9150611c0d82611ba6565b604082019050919050565b60006020820190508181036000830152611c3181611bf5565b905091905056fea2646970667358221220b9a7aabf2566e93425be3f6e6f6c65bdfe88388883634fb2926f6ac518c7d47b64736f6c6343000813003368747470733a2f2f6769746875622e636f6d2f6d6574616c706f63682f63727970746f2d6372617465",
  "immutableReferences": {},
  "source": "// SPDX-License-Identifier: MIT\npragma solidity 0.8.19;\n\ncontract CrateContract {\n    uint256 public crateCounter;\n\n    event ViewCrate(\n        uint256 id,\n        string title,\n        string description,\n        string imageUrl,\n        bool premium,\n        address owner,\n        address creator,\n        uint256 amount,\n        bool isSalable,\n        uint256 updateAt,\n        uint256 createAt\n    );\n\n    struct Crate {\n        uint256 id;\n        string title;\n        string description;\n        string imageUrl;\n        bool premium;\n        address owner;\n        address creator;\n        uint256 amount;\n        bool isSalable;\n        uint256 updateAt;\n        uint256 createAt;\n    }\n\n    mapping(uint256 => Crate) public crates;\n\n    constructor() {\n        crates[crateCounter] = Crate(\n            crateCounter,\n            \"Genesis\",\n            \"The first crate\",\n            \"https://github.com/metalpoch/crypto-crate\",\n            true,\n            msg.sender,\n            msg.sender,\n            0,\n            false,\n            block.timestamp,\n            block.timestamp\n        );\n        crateCounter++;\n    }\n\n    function createCrate(\n        string memory _title,\n        string memory _description,\n        string memory _imageUrl,\n        bool _premium,\n        uint256 _amount,\n        bool _isSalable\n    ) public {\n        crates[crateCounter] = Crate(\n            crateCounter,\n            _title,\n            _description,\n            _imageUrl,\n            _premium,\n            msg.sender,\n            msg.sender,\n            _amount,\n            _isSalable,\n            block.timestamp,\n            block.timestamp\n        );\n        crateCounter++;\n\n        emit ViewCrate(\n            crateCounter,\n            _title,\n            _description,\n            _imageUrl,\n            _premium,\n            msg.sender,\n            msg.sender,\n            _amount,\n            _isSalable,\n            block.timestamp,\n            block.timestamp\n        );\n    }\n\n    function updateCrate(\n        uint256 _id,\n        string memory _title,\n        string memory _description,\n        string memory _imageUrl,\n        bool _premium,\n        uint256 _amount,\n        bool _isSalable\n    ) public {\n        require(\n            msg.sender == crates[_id].owner,\n            \"You can only update your products\"\n        );\n\n        crates[_id].title = _title;\n        crates[_id].description = _description;\n        crates[_id].imageUrl = _imageUrl;\n        crates[_id].premium = _premium;\n        crates[_id].amount = _amount;\n        crates[_id].isSalable = _isSalable;\n        crates[_id].updateAt = block.timestamp;\n\n        emit ViewCrate(\n            crateCounter,\n            _title,\n            _description,\n            _imageUrl,\n            _premium,\n            msg.sender,\n            msg.sender,\n            _amount,\n            _isSalable,\n            block.timestamp,\n            block.timestamp\n        );\n    }\n\n    function buyCrate(address payable _recipient, uint256 _id) public payable {\n        require(crates[_id].isSalable == true, \"The crate is not for sale\");\n        require(msg.value >= crates[_id].amount, \"Insufficient amount\");\n\n        _recipient.transfer(crates[_id].amount);\n        crates[_id].owner = msg.sender;\n    }\n\n    function getCratesByOwner(\n        address _owner\n    ) public view returns (Crate[] memory) {\n        uint256 count = 0;\n        for (uint256 i = 0; i < crateCounter; i++) {\n            if (crates[i].owner == _owner) {\n                count++;\n            }\n        }\n\n        Crate[] memory result = new Crate[](count);\n        uint256 index = 0;\n        for (uint256 i = 0; i < crateCounter; i++) {\n            if (crates[i].owner == _owner) {\n                result[index] = crates[i];\n                index++;\n            }\n        }\n\n        return result;\n    }\n}\n",
  "sourcePath": "/home/poch/Develop/crypo-crate/blockchain/contracts/CrateContract.sol",
  "compiler": {
    "name": "solc",
    "version": "0.8.19+commit.7dd6d404.Emscripten.clang"
  },
  "schemaVersion": "3.4.16",
  "updatedAt": "2023-10-22T17:31:48.818Z",
  "networkType": "ethereum",
  "devdoc": {
    "kind": "dev",
    "methods": {},
    "version": 1
  },
  "userdoc": {
    "kind": "user",
    "methods": {},
    "version": 1
  }
}