{
  "contractName": "Prueba",
  "abi": [
    {
      "inputs": [
        {
          "internalType": "uint8",
          "name": "number",
          "type": "uint8"
        }
      ],
      "name": "set",
      "outputs": [],
      "stateMutability": "nonpayable",
      "type": "function"
    },
    {
      "inputs": [],
      "name": "get",
      "outputs": [
        {
          "internalType": "uint8",
          "name": "",
          "type": "uint8"
        }
      ],
      "stateMutability": "view",
      "type": "function",
      "constant": true
    }
  ],
  "bytecode": "0x608060405234801561001057600080fd5b50610173806100206000396000f3fe608060405234801561001057600080fd5b50600436106100365760003560e01c806324b8ba5f1461003b5780636d4ce63c14610057575b600080fd5b610055600480360381019061005091906100e6565b610075565b005b61005f610092565b60405161006c9190610122565b60405180910390f35b806000806101000a81548160ff021916908360ff16021790555050565b60008060009054906101000a900460ff16905090565b600080fd5b600060ff82169050919050565b6100c3816100ad565b81146100ce57600080fd5b50565b6000813590506100e0816100ba565b92915050565b6000602082840312156100fc576100fb6100a8565b5b600061010a848285016100d1565b91505092915050565b61011c816100ad565b82525050565b60006020820190506101376000830184610113565b9291505056fea26469706673582212204497eb6e299bb4ea548868b04f1148b07daf68ba6bc4adec2e91de982e8f9f5664736f6c634300080d0033",
  "immutableReferences": {},
  "source": "// SPDX-License-Identifier: MIT\npragma solidity 0.8.13;\n\ncontract Prueba {\n  uint8 baseValue;\n\n  function set(uint8 number) public {\n    baseValue = number;\n  }\n\n  function get() public view returns(uint8){\n    return baseValue;\n  }\n}\n",
  "sourcePath": "/home/poch/Develop/crypo-crate/blockchain/contracts/Prueba.sol",
  "compiler": {
    "name": "solc",
    "version": "0.8.13+commit.abaa5c0e.Emscripten.clang"
  },
  "schemaVersion": "3.4.16",
  "updatedAt": "2023-10-17T01:48:02.591Z",
  "networkType": "ethereum",
  "devdoc": {
    "kind": "dev",
    "methods": {},
    "version": 1
  },
  "userdoc": {
    "kind": "user",
    "methods": {},
    "version": 1
  }
}